:100000000C94D0030C9498100C9471100C94F80379
:100010000C94F8030C94F8030C94F8030C94F80374
:100020000C94F8030C94F8030C94F8030C94F80364
:100030000C94F8030C94F8030C94F8030C94F80354
:100040000C9427100C94F8030C94E5100C94BF103A
:100050000C94F8030C94F8030C94F8030C94F80334
:100060000C9417110C94F8037072696E7420486533
:100070006C70206D6573736167652E002D68004E8E
:100080006F74207072696E74204E6577204C696EB3
:1000900065206368617261637465722E002D6E0065
:1000A0007072696E7420535452494E4720746F2009
:1000B000636F6E736F6C6520746F20746573742E3C
:1000C000204F6E6C7920666972737420776F72644A
:1000D0002073686F756C64206265207072696E743D
:1000E00065642E006563686F205B4F5054494F4E26
:1000F0005D20535452494E47007072696E742061FE
:100100007267756D656E7420737472696E672074A2
:100110006F20636F6E736F6C652E006563686F0090
:100120007072696E742048656C70206D65737361C0
:1001300067652E002D680053686F777320617661C4
:10014000696C61626C6520636F6D6D616E64732EA6
:100150000068656C700053686F77732068656C7019
:10016000206D65737361676520666F7220636F6DC4
:100170006D616E64206C696E6520636F6D6D616E7C
:1001800064732E0068656C70007072696E7420482C
:10019000656C70206D6573736167652E002D680056
:1001A00044697361626C6520696E74657272757002
:1001B0007420666F7220746573742E002D69004977
:1001C0006E697469616C697A65207468652073650D
:1001D0006E736F7220627920666F7263652E002DD8
:1001E00049004F6E2F6F666620617070726F616399
:1001F0006820646574656374696F6E206D6F6465F3
:100200002E2064656661756C743D206F66662E00F5
:100210002D41206F6E7C6F666600526561642074AC
:1002200068652063757272656E7420706F77657291
:100230002E002D700053657420746865205246208E
:10024000706F7765722E204769766520616E206930
:100250006E74656765722066726F6D202D32207432
:100260006F2031332E2064656661756C743D202DDE
:10027000322064426D2E002D50204E0020526561C8
:100280006420746865207265706F7274207468727F
:100290006573686F6C642E002D7400536574207450
:1002A0006865207265706F72742074687265736817
:1002B0006F6C6420746F204E2E2064656661756CCF
:1002C000742076616C75653D203130302E002D54E0
:1002D000204E004F6E2F6F6666207265706F7274CD
:1002E000696E67206D6F76656D656E742076616CE2
:1002F0007565206C6172676572207468616E207428
:1003000068726573686F6C642E2064656661756CD5
:10031000743D206F6E2E002D52206F6E7C6F6666CE
:1003200000566172696F757320636F6D6D616E64E5
:100330007320746F20636F6E74726F6C206D6F74B6
:10034000696F6E2073656E736F722E006D6F7469C6
:100350006F6E205B4F5054494F4E5D004D6F746976
:100360006F6E2073656E736F7220636F6E74726F41
:100370006C2070726F6772616D2E006D6F74696FA3
:100380006E007072696E742048656C70206D6573C4
:10039000736167652E002D68004F6E202F206F66F9
:1003A00066204144432076616C7565207265616CFE
:1003B0002D74696D652073747265616D696E672E49
:1003C00028696E206D56290A0909090969662061A4
:1003D000206E756D626572204E20697320676976A4
:1003E000656E2C204E2073616D706C65732077698B
:1003F0006C6C206265206F7574207468656E207364
:10040000746F702073656E64696E672E002D4120D5
:100410006F6E7C6F66667C4E005772697465205BF8
:1004200076616C75655D20746F20746865207265F7
:10043000736973746572207072657365742E002D14
:10044000772076616C75650052656164207468651B
:100450002072656769737465722066726F6D2070B3
:10046000726573657420616464726573732E002D08
:1004700072005365742074617267657420726567D9
:100480006973746572206164647265737320746F3C
:1004900020726561642F77726974652E0A090909F3
:1004A000094966206E6F74207365742C207468652A
:1004B000206C617374206164647265737320776962
:1004C0006C6C2072657461696E2E2064656661755E
:1004D0006C74203D20302E002D61206164647265B3
:1004E00073730052656164206F722077726974655E
:1004F00020525443363031322E20536574206164CB
:1005000064726573732066697273742C20746865F5
:100510006E20726561642066726F6D206F72207745
:1005200072697465206F6E2069742E007269636849
:1005300077617665205B4F5054494F4E5D005265A0
:1005400061642F7772697465205269636877617698
:100550006520636869702C20525443363031322E46
:10056000007269636877617665005072696E742005
:1005700048656C70206D6573736167652E002D682A
:100580000052657365742073797374656D2E002D48
:1005900052005072696E742076657273696F6E20B6
:1005A000737472696E672E002D76004F6E202F20B7
:1005B0006F6666207468652068656C70206D657371
:1005C00073616765206F6620616C6C206170707369
:1005D0002E002D48205B6F6E7C6F66665D004F6E4F
:1005E000202F206F6666207468652070726F6D70B2
:1005F00074002D70205B6F6E7C6F66665D005379B2
:100600007374656D20636F6E74726F6C2070726F9F
:100610006772616D2C206E6F74206F7267616E69F6
:100620007A6564207965742E0073797374656D2022
:100630005B4F5054494F4E5D0053797374656D2084
:10064000636F6E74726F6C2070726F6772616D2E63
:100650000073797374656D000A0009000A09000AC5
:10066000000A4465736372697074696F6E0A0900E9
:100670000A000A55736167650A09000A00202D20E7
:10068000000A4E616D650A0900092A2054797065D7
:10069000202773797374656D202D70206F6E27206D
:1006A000746F20736565207468652070726F6D705B
:1006B000742E0A092A20547970652027737973747F
:1006C000656D202D48206F6E2720746F207365653F
:1006D000207468652068656C70206F6620656163B2
:1006E000682070726F6772616D2E0A00FEFFFFFF57
:1006F00000000100020003000400050006000700DE
:10070000080009000A000B000C000D005058532D82
:1007100050502048572D76322046572D76312E30B6
:100720002D424E3537382041707220333020323020
:1007300032322031333A34383A3130000A00000086
:100740000000240027002A004D3A52656164790AAE
:1007500000505853202420000000000025002800ED
:100760002B00040404040404040402020202020232
:100770000303030303030102040810204080010265
:1007800004081020010204081020000000080002E4
:100790000100000304070000000000000000361202
:1007A00011241FBECFEFD8E0DEBFCDBF25E0A4E609
:1007B000B2E001C01D92AE30B207E1F712E0A0E056
:1007C000B1E0EAEBF1E302C005900D92A436B10767
:1007D000D9F713E0C0EDD3E004C02197FE010E94D9
:1007E0000516CF3CD107C9F70E948F120C94DB1875
:1007F0000C9400008091E6039091E703891B990B0C
:10080000089590E0FC01E657F84F2491FC01EA5866
:10081000F84F3491FC01EE59F84FE491EE23C9F002
:10082000222339F0233001F1A8F4213019F12230CC
:1008300029F1F0E0EE0FFF1FE85AF84FA591B491AF
:100840008FB7F894EC91611126C030953E233C930C
:100850008FBF08952730A9F02830C9F0243049F718
:10086000809180008F7D03C0809180008F7780937E
:100870008000DFCF84B58F7784BDDBCF84B58F7DDB
:10088000FBCF8091B0008F778093B000D2CF809162
:10089000B0008F7DF9CF3E2BDACF3FB7F89480912F
:1008A000E2039091E303A091E403B091E50326B540
:1008B000A89B05C02F3F19F00196A11DB11D3FBF98
:1008C000BA2FA92F982F8827BC01CD01620F711D67
:1008D000811D911D42E0660F771F881F991F4A9561
:1008E000D1F708958F929F92AF92BF92CF92DF92ED
:1008F000EF92FF924B015C010E944D046B017C0161
:100900000E944D046C197D098E099F09683E734051
:1009100081059105A8F321E0821A9108A108B10888
:1009200088EEC80E83E0D81EE11CF11C81149104EE
:10093000A104B10429F7FF90EF90DF90CF90BF9012
:10094000AF909F908F9008950895AF92BF92CF92ED
:10095000DF92EF92FF920F931F93CF93DF936C017F
:100960007B018B01040F151FEB015E01AE18BF0860
:10097000C017D10759F06991D601ED91FC91019012
:10098000F081E02DC6010995892B79F7C501DF912A
:10099000CF911F910F91FF90EF90DF90CF90BF907C
:1009A000AF900895FC01538D448D252F30E0842FA6
:1009B00090E0821B930B541710F0CF960895019787
:1009C0000895FC01918D828D981761F0A28DAE0F74
:1009D000BF2FB11D5D968C91928D9F5F9F73928FFB
:1009E00090E008958FEF9FEF0895FC01918D828D27
:1009F000981731F0828DE80FF11D858D90E00895F4
:100A00008FEF9FEF0895FC01918D228D892F90E04B
:100A1000805C9F4F821B91098F739927089588E509
:100A200094E00E94030521E0892B09F420E0822F45
:100A3000089580E090E0892B29F00E940F05811134
:100A40000C9400000895FC01A48DA80FB92FB11DCE
:100A5000A35ABF4F2C91848D90E001968F739927F4
:100A6000848FA689B7892C93A089B1898C918370D2
:100A700080648C93938D848D981306C00288F389CB
:100A8000E02D80818F7D80830895EF92FF920F93F8
:100A90001F93CF93DF93EC0181E0888F9B8D8C8D2A
:100AA00098131AC0E889F989808185FF15C09FB71E
:100AB000F894EE89FF896083E889F98980818370E1
:100AC000806480839FBF81E090E0DF91CF911F9190
:100AD0000F91FF90EF900895F62E0B8D10E00F5FB1
:100AE0001F4F0F731127E02E8C8D8E110CC00FB687
:100AF00007FCFACFE889F989808185FFF5CFCE011F
:100B00000E942305F1CFEB8DEC0FFD2FF11DE35A71
:100B1000FF4FF0829FB7F8940B8FEA89FB898081A1
:100B20008062CFCFCF93DF93EC01888D8823B9F01B
:100B3000AA89BB89E889F9898C9185FD03C08081E8
:100B400086FD0DC00FB607FCF7CF8C9185FFF2CF65
:100B5000808185FFEDCFCE010E942305E9CFDF9193
:100B6000CF910895CF93DF93EC01FE01649166234A
:100B700039F088E594E00E9445052196892BA9F774
:100B8000DF91CF910895089508950895E091E703C6
:100B90008091E603E81730F4F0E0E851FC4F8081E3
:100BA00090E008958FEF9FEF08959091E703809173
:100BB000E6032FEF3FEF981748F4E92FF0E0E851F4
:100BC000FC4F208130E09F5F9093E703C9010895B7
:100BD00090E080E008952091B002260F3327331F64
:100BE00021323105ECF420912E04FC0190E080E0EC
:100BF000243069F082E00895A091B0022191AC0107
:100C000042575D4FA40FB52FB11D2C930196861747
:100C100098F38091B002680F6093B00280E008956D
:100C200081E00895CF92DF92EF92FF920F931F938E
:100C3000CF93DF937C01CB018A01209134042223DE
:100C400089F0EB016B01C40ED51ECC15DD0569F0F2
:100C50006991D701ED91FC910190F081E02DC701E0
:100C60000995F3CF642F0E94EB05C801DF91CF9166
:100C70001F910F91FF90EF90DF90CF900895CF9349
:100C8000DF931F92CDB7DEB769832091340422230E
:100C9000F9F020915704203258F021E030E0FC01B7
:100CA0003383228390E080E00F90DF91CF9108950D
:100CB00080913504E82FF0E0EA5CFB4F9981908346
:100CC0008F5F809335048093570481E090E0ECCFF0
:100CD00061E0CE0101960E94EB05F7CF10922E0441
:100CE00081E080932D041092080461E082E10E946B
:100CF000010461E083E10E940104E9EBF0E08081FE
:100D00008E7F808380818D7F808388E48093B8008C
:100D100085E48093BC000895CF93DF9391E0909396
:100D20008D028823B9F0C091B800D091BA008091AB
:100D3000BC008A7B8093BC0060E082E10E940104D9
:100D400060E083E10E9401040E946E06D093BA0025
:100D5000C093B800DF91CF9108958F929F92AF9288
:100D6000BF92CF92DF92EF92FF920F931F93CF9398
:100D7000DF93D0915704D13208F0D7C0182FC0911B
:100D800056040E944D046B017C0180912E04811158
:100D90006BC082E080932E0410932D048FEF80931C
:100DA0002C0410922B04D0932A04A6E3B4E0EAE0CA
:100DB000F4E080E0D81391C01092090480910904F6
:100DC000CC0FC82BC093090480910804813009F02E
:100DD00088C0109208040E944D046B017C01809130
:100DE00009048093BB008091300490913104A0915C
:100DF0003204B0913304892B8A2B8B2BA1F00E94F3
:100E00004D0400913004109131042091320430914E
:100E100033046C197D098E099F09061717072807E7
:100E2000390708F442C08091BC0083FDD8CF85EC1F
:100E30008093BC000E944D046B017C0180912E04C4
:100E4000823009F450C080912C048F3F09F46FC0A8
:100E500080912C04803209F46CC080912C04803382
:100E600009F469C084E026C0809130049091310477
:100E7000A0913204B0913304892B8A2B8B2B09F477
:100E800084CF0E944D048090300490903104A09053
:100E90003204B09033046C197D098E099F098616BF
:100EA0009706A806B90608F070CF80912F040E941B
:100EB0008C0685E010923504109257041092340489
:100EC000DF91CF911F910F91FF90EF90DF90CF9026
:100ED000BF90AF909F908F9008959D9191938F5F59
:100EE00069CF85EEA5CF8091300490913104A09117
:100EF0003204B0913304892B8A2B8B2B09F49ECFBB
:100F00000E944D040091300410913104209132046C
:100F1000309133046C197D098E099F090617170754
:100F20002807390708F08ACFC0CF81E0C3CF80E01F
:100F3000C1CF82E0BFCF83E0BDCFCF93DF93EB0182
:100F400091E09093340494E6909356041092350403
:100F500010925704682F85EF94E00E943F066D2F92
:100F600085EF94E00E943F066C2F85EF94E00E948D
:100F70003F0681E0DF91CF910C94AD0610923A03C9
:100F80001092390310923C0310923B030895EF92A4
:100F9000FF920F931F93CF93DF932091650222233B
:100FA00009F456C0EC0181E896E00E94B205888100
:100FB00099810E94B2058DE796E00E94B2058A8170
:100FC0009B810E94B2058BE796E00E94B20582E702
:100FD00096E00E94B2058C819D810E94B20580E757
:100FE00096E00E94B20581E696E00E94B2058E81ED
:100FF0009F810E94B2058FE596E00E94B20510E045
:1010000000E08A859B850817190714F5C801880F29
:10101000991F880F991FE884F984E80EF91E8CE562
:1010200096E00E94B205F701808191810E94B2058D
:101030008AE596E00E94B205F701828193810E94C1
:10104000B20588E596E00E94B2050F5F1F4FD9CF29
:10105000DF91CF911F910F91FF90EF900895CF9264
:10106000DF92EF92FF920F931F93CF9391E09093B3
:10107000340494E690935604109235041092570469
:10108000682F85EF94E00E943F0681E00E94AD0644
:101090000E944D046B017C0180912E04811164C07B
:1010A00081E080932E0480932D049FEF90932C0475
:1010B00010922B0480932A048093090480910904E0
:1010C000886C8093090480910804813009F08CC0F9
:1010D000109208040E944D046B017C018091090468
:1010E0008093BB008091300490913104A091320430
:1010F000B0913304892B8A2B8B2BA1F00E944D04D5
:101100000091300410913104209132043091330465
:101110006C197D098E099F090617170728073907DB
:1011200008F443C08091BC0083FDD8CF85EC809348
:10113000BC000E944D046B017C0180912E04813023
:1011400009F454C080912B04823008F071C0809162
:101150002B04AAE0B4E0E8EEF3E090E0981751F138
:101160002D9121939F5FFACF8091300490913104AB
:10117000A0913204B0913304892B8A2B8B2B09F474
:101180008BCF0E944D0400913004109131042091C6
:101190003204309133046C197D098E099F090617BA
:1011A00017072807390708F077CF80912F040E948E
:1011B0008C0680E01092E7038093E6038230F0F320
:1011C00085EF94E00E94D505C82F85EF94E00E943A
:1011D000D50520E0822B9C2BCF911F910F91FF9082
:1011E000EF90DF90CF90089585EEA1CF80913004ED
:1011F00090913104A0913204B0913304892B8A2B51
:101200008B2B09F49ACF0E944D0400913004109169
:10121000310420913204309133046C197D098E0918
:101220009F09061717072807390708F086CFBDCF93
:1012300082E08FCFCF93DF93EC0186E20E942F08EC
:10124000BC017F7786E20E949D07CC0FDD1FC8524C
:10125000DE4F688179818BE0DF91CF910C949D07FF
:10126000CF93DF93F894E89884EA94E09093010197
:10127000809300011092E0031092DF031092DC03D0
:1012800010928802109287021092860288E790E0FE
:1012900090930B0180930A011092DB031092DA0302
:1012A0001092B4031092B5031092B6031092B703D4
:1012B000789462E370E080E090E00E947204109203
:1012C000E7031092E60310923504109257040E942F
:1012D0006E0683EC95E09093AF028093AE0284ECAF
:1012E00095E09093B3028093B20288EF8093B800A8
:1012F00080E00E942F088838964109F0C0C081E044
:101300000E942F088130944009F0B9C063E170E970
:1013100082E00E949D0763E170E982E00E949D07E0
:1013200066E170E982E00E949D0764EF71E080E071
:1013300090E00E94720460E07EE08EE20E949D07D1
:1013400060E670E086E20E949D0764E87AE084E24D
:101350000E949D0761E67FE38CE20E949D0768E0A2
:1013600078E281E20E949D0767EF7FEF80E20E94B2
:101370009D0770E060E080E10E949D0770E060E002
:1013800081E10E949D076BE571E483E10E949D0766
:101390006BE571E484E10E949D0763E070E085E104
:1013A0000E949D0763E070E086E10E949D076BE26A
:1013B00070E087E10E949D076BE270E088E10E9487
:1013C0009D0762E070E789E10E949D0762E272E09A
:1013D00083E00E949D0763E073E885E00E949D071B
:1013E00060E070E786E00E949D0763E070E088E0BF
:1013F0000E949D076FEF78E189E00E949D0760E7FA
:101400007EEE8DE00E949D0766E174ED82E00E9411
:101410009D07E8E7F7E02491E4E6F7E08491811185
:1014200035C08AE19DE09093010180930001809195
:101430006900836080936900E89A80E197E2A0E008
:10144000B0E08093050590930605A0930705B0933F
:1014500008052FB7F8948091010590910205A0919D
:101460000305B09104052FBF8093090590930A05E9
:10147000A0930B05B0930C05DF91CF91089564E61E
:1014800070E080E090E00E94720432CF90E0880F1C
:10149000991FFC01E25CF84FC591D491FC01E85A18
:1014A000F84FA591B4919FB7F8943881822F809519
:1014B00083238883EC91E22BEC939FBFB2CF0097FC
:1014C00069F0FC0101900020E9F73197AF01481B5A
:1014D000590BBC0188E594E00C94A50408954F9243
:1014E0005F926F927F928F929F92AF92BF92CF92B4
:1014F000DF92EF92FF920F931F93CF93DF938C01B4
:10150000EB01FC0101900020E9F731975F01A81A77
:10151000B90AE1E0F0E0C12CD12C7601C3942B0193
:10152000770F66087708EA15FB05A0F1812C912C4E
:1015300054012E010D2E000C66087708F8018191E8
:101540008F018823A1F1082E000C990BDC01D097A4
:10155000AA30B10570F0C031D10531F50E942016D6
:10156000A82F8FEB8A0F8630F8F40A2E000CBB0BE5
:10157000D797A70196010E94E915860E971EA81E0F
:10158000B91EC701B601A30192010E94A11569010C
:101590007A01D4CFA7019601C301B2010E947D1543
:1015A0006B017C013196BFCFB0E0A0E0E2CFC50176
:1015B000B401DF91CF911F910F91FF90EF90DF90D9
:1015C000CF90BF90AF909F908F907F906F905F90E3
:1015D0004F900895CF92DF92EF92FF920F931F9357
:1015E000CF93DF93FC0120812D32B1F401962FEFD0
:1015F0003FEF6901330FEE08FF08FC012081203323
:1016000021F421812F7D283569F0FC0121912111E0
:101610003AC06AE070E010C02B3209F4019621E074
:1016200030E0E7CFEC0122968E01F8018081811134
:1016300014C060E170E0CE010E946F0A9B01AC0112
:10164000C701B6010E947D15DF91CF911F910F91C7
:10165000FF90EF90DF90CF900895082E000C990B2B
:101660000E942016F8018083282F082E000C330BCF
:10167000205331092A30310518F08154863060F446
:101680000F5F1F4FD2CF022E000C330B20533109B6
:101690002A30310508F4BACF20E030E0A901D0CFDC
:1016A0007F928F929F92AF92BF92CF92DF92EF92F2
:1016B000FF920F931F93CF93DF936C0180913B03B5
:1016C00090913C03892B31F481E090E090933C03AE
:1016D00080933B03E0903B03F0903C03EC14FD044B
:1016E0000CF06EC05701AA0CBB1CA60EB71ED5018C
:1016F0000D911C91F80180818D3209F061C0470184
:10170000FFEF8F1A9F0A90923C0380923B03109246
:101710003A0310923903D80111969C91C92F092ED2
:10172000000CDD0BFA01DA018D91811103C0CFE3CA
:10173000D0E005C09813F8CF819181110FC0CE0180
:10174000DF91CF911F910F91FF90EF90DF90CF909D
:10175000BF90AF909F908F907F9008959813ECCF9B
:1017600080818A3349F7F8017280872D072C000C9D
:10177000990B0E940B16892B31F4BBE27B1619F0F2
:10178000EDE27E1207C00E5F1F4F10933A030093E5
:101790003903D5CF8C149D0454F6D5011296ED91E2
:1017A000FC9180818D3219F2F0933A03E093390372
:1017B000B2E0EB0EF11CF0923C03E0923B03BFCF92
:1017C000CFEFDFEFBCCF8F929F92AF92BF92DF92AD
:1017D000EF92FF920F931F93CF93DF938130910588
:1017E00079F488EB91E0DF91CF911F910F91FF90F9
:1017F000EF90DF90BF90AF909F908F900C94C707B1
:101800007B018C010E94BE07D0E0C0E0B12CA12C6E
:10181000DD24D39440EB51E0B701C8010E94500B86
:101820008F3F980709F44BC080379105D9F4809019
:10183000390390903A036CE172E0C4010E942816CB
:10184000892B31F41092AF03E5CFC1E0D0E0E2CFB5
:1018500067E472E0C4010E942816892BB1F7D09288
:10186000AF03D8CF88349105C1F4809039039090AC
:101870003A036CE172E0C4010E942816892B19F426
:1018800010926502C7CF67E472E0C4010E94281677
:10189000892BD9F6D0926502BDCF8637910549F4E0
:1018A0008CE097E00E94B2058CE397E00E94B205BD
:1018B000B1CF8235910549F6F5010995ABCFCD2B16
:1018C00009F08FCFDF91CF911F910F91FF90EF9093
:1018D000DF90BF90AF909F908F900895EF92FF920E
:1018E0000F931F93CF93DF938C017B010E94BE0760
:1018F000C0E04FE751E0B701C8010E94500B0196CC
:1019000061F4CC2361F083E791E0DF91CF911F91E7
:101910000F91FF90EF900C94C707C1E0EACF80E2EF
:1019200092E00E945F0AC4ECD1E081E0C83DD80794
:1019300051F0888199810E945F0A83E392E00E94BE
:101940005F0A2496F2CF81E492E00E945F0A89E860
:1019500096E0DF91CF911F910F91FF90EF900C9443
:10196000B205EF92FF920F931F93CF93DF937C0109
:10197000EB010E94BE0711E000E040E751E0BE012C
:10198000C7010E94500B8F3F980739F08E369105A2
:1019900011F001E0F2CF10E0F0CF002351F084E627
:1019A00091E0DF91CF911F910F91FF90EF900C94F8
:1019B000C70780913B0390913C03880F991FC80F84
:1019C000D91F88819981009771F00E945F0A1123C5
:1019D00051F081E492E0DF91CF911F910F91FF9040
:1019E000EF900C945F0ADF91CF911F910F91FF90C0
:1019F000EF9008950F931F93CF93DF93CDB7DEB78A
:101A00009E01295F3F4FF901419151919F0163E68A
:101A100070E085ED92E00E9431168C01109238033F
:101A200085ED92E00E945F0AC801DF91CF911F917E
:101A30000F910895CF92DF92EF92FF928091B403BD
:101A40009091B503A091B603B091B7030196A11D83
:101A5000B11D8093B4039093B503A093B603B093E4
:101A6000B7038091DC0381110BC081E090E090937B
:101A7000E0038093DF03FF90EF90DF90CF90089515
:101A800080E480937C0080917A00806480937A0067
:101A900080917A0086FDFCCFA0917800B09179000A
:101AA00028E833E10E94E2156B017C013AE0F694EC
:101AB000E794D794C7943A95D1F780918902909191
:101AC0008A02A0918B02B0918C02892B8A2B8B2BDE
:101AD00029F1DF92CF9285E392E09F938F930E944A
:101AE000FA0C8091890290918A02A0918B02B091A8
:101AF0008C020F900F900F900F908F3F2FEF920757
:101B0000A207B20759F00197A109B1098093890290
:101B100090938A02A0938B02B0938C0280918802EA
:101B200081113EC080910A0190910B010197909321
:101B30000B0180930A01892B09F09DCF81E08093EE
:101B4000880280910401882321F088E497E00E94B4
:101B5000B20580E197E2A0E0B0E0809305059093A4
:101B60000605A0930705B09308052FB7F894809158
:101B7000010590910205A0910305B09104052FBFC6
:101B80008093090590930A05A0930B05B0930C056B
:101B90001092B4031092B5031092B6031092B703DB
:101BA000E0918602F0918702CF010196909387021F
:101BB00080938602EE0FFF1FEA59FD4FC082D1824B
:101BC0000F970CF458CFE6E6F2E0AAEBB3E084E816
:101BD00092E0219131912D933D938E179F07C9F784
:101BE0008091DF039091E00382609093E003809303
:101BF000DF0310928702109286023DCF3F924F92F0
:101C00005F926F927F928F929F92AF92BF92CF928C
:101C1000DF92EF92FF920F931F93CF93DF93813068
:101C20009105A9F484EA91E0DF91CF911F910F9182
:101C3000FF90EF90DF90CF90BF90AF909F908F90EC
:101C40007F906F905F904F903F900C94C7075B011F
:101C50004C010E94BE07D0E0C0E010E000E0442448
:101C60004A94542C32014BE951E0B501C4010E9461
:101C7000500B8F3F980709F470C081369105B1F47D
:101C80008091390390913A03FC012081022E000CCF
:101C9000330B205331092A30310528F4C4600E94E7
:101CA000EA0A362EE0CF01E010E0DDCF8237910561
:101CB00011F4C160D8CF8737910599F48091390329
:101CC00090913A03FC012081022E000C330B20532B
:101CD00031092A30310538F7C2600E94EA0A6B01E7
:101CE000C2CF81349105F9F6E0903903F0903A03C0
:101CF0006CE172E0C7010E942816892B49F410920A
:101D0000890210928A0210928B0210928C02ABCF41
:101D100067E472E0C7010E942816892B49F44092BB
:101D2000890250928A0260928B0270928C029BCF41
:101D3000F7018081082E000C990BC0970A9708F0D4
:101D4000B2CFC7010E94EA0A6093890270938A02A7
:101D500080938B0290938C0286CFC2FD30926402F6
:101D6000C0FF10C0809164020E942F089F938F9340
:101D70008BE392E09F938F930E94FA0C0F900F9049
:101D80000F900F90C1FF05C0B601809164020E94C0
:101D90009D07012B09F046CFDF91CF911F910F9145
:101DA000FF90EF90DF90CF90BF90AF909F908F907B
:101DB0007F906F905F904F903F9008952F923F9249
:101DC0004F925F926F927F928F929F92AF92BF924B
:101DD000CF92DF92EF92FF920F931F93CF93DF93F7
:101DE00081309105B1F48FE891E0DF91CF911F919F
:101DF0000F91FF90EF90DF90CF90BF90AF909F90AA
:101E00008F907F906F905F904F903F902F900C94A9
:101E1000C7076B017C010E94BE07D0E0C0E094EAD6
:101E2000292E94E0392EAA24A394B12C07E312E0C2
:101E30003CE3432E512C42E0642E712C41E851E0EA
:101E4000B601C7010E94500B8F3F980709F4B1C03B
:101E500082359105E1F48090390390903A0367E46C
:101E600072E0C4010E942816892B39F481E0809326
:101E70000501E4CFC1E0D0E0E1CF6CE172E0C40144
:101E80000E942816892BB1F710920501D7CF813413
:101E9000910521F58090390390903A0367E472E050
:101EA000C4010E942816892B49F4B092B903A0926C
:101EB000B8037092070160920601C0CF6CE172E036
:101EC000C4010E942816892BA9F61092B90310921A
:101ED000B803B0920701A0920601B0CF80359105FA
:101EE00049F58091390390913A030E94EA0A2CEE59
:101EF00036E0B0E0A0E0F90145915491461757074C
:101F000091F4B093DE03A093DD03CD010E941A0982
:101F100050920B0140920A01109288021092DB034A
:101F20001092DA038BCF11962E5F3F4FA031B1058F
:101F300011F784CF80379105A9F4E091DD03F0918A
:101F4000DE03EE0FFF1FE451F94F859194919F93AB
:101F50008F931F930F930E94FA0C0F900F900F9086
:101F60000F906CCF8435910559F48091390390918D
:101F70003A030E94EA0A70930901609308015ECF58
:101F80008437910531F4809109018F938091080184
:101F9000DFCF8934910519F40E9430094FCF89367B
:101FA000910509F067CFE898309201012092000175
:101FB00045CFCD2B09F017CFDF91CF911F910F9116
:101FC000FF90EF90DF90CF90BF90AF909F908F9059
:101FD0007F906F905F904F903F902F90089585ED88
:101FE0008093BC008091300490913104A091320420
:101FF000B09133040796A11DB11D23E0B695A795B6
:10200000979587952A95D1F72091BC0024FD03C0B0
:1020100010922E0408954091300450913104609143
:10202000320470913304452B462B472B69F30097FC
:10203000A105B10541F02AE22A95F1F700C0019708
:10204000A109B109E1CF80912F040C948C061F9255
:102050000F920FB60F9211242F933F938F939F935C
:10206000AF93BF938091010590910205A091030564
:10207000B09104053091E10323E0230F2D3758F58B
:102080000196A11DB11D2093E1038093010590935A
:102090000205A0930305B09304058091E20390919B
:1020A000E303A091E403B091E5030196A11DB11DE6
:1020B0008093E2039093E303A093E403B093E503DA
:1020C000BF91AF919F918F913F912F910F900FBE34
:1020D0000F901F90189526E8230F0296A11DB11DA1
:1020E000D2CF1F920F920FB60F9211242F933F93CE
:1020F0004F935F936F937F938F939F93AF93BF9310
:10210000EF93FF93E0910201F09103010995FF9194
:10211000EF91BF91AF919F918F917F916F915F915F
:102120004F913F912F910F900FBE0F901F901895D8
:102130001F920F920FB60F9211242F933F934F933C
:102140005F936F937F938F939F93AF93BF93EF931F
:10215000FF93E0910001F09101010995FF91EF914A
:10216000BF91AF919F918F917F916F915F914F91AF
:102170003F912F910F900FBE0F901F9018951F92B7
:102180000F920FB60F9211242F933F934F935F93AB
:102190006F937F938F939F93AF93BF93EF93FF932F
:1021A00088E594E00E942305FF91EF91BF91AF91E4
:1021B0009F918F917F916F915F914F913F912F915F
:1021C0000F900FBE0F901F9018951F920F920FB691
:1021D0000F9211242F938F939F93EF93FF93E0918E
:1021E0006804F09169048081E0916E04F0916F04BD
:1021F00082FD1BC09081809171048F5F8F7320914D
:102200007204821741F0E0917104F0E0E85AFB4F4C
:10221000958F80937104FF91EF919F918F912F91F2
:102220000F900FBE0F901F9018958081F4CF1F92D2
:102230000F920FB60F9211242F933F934F935F93FA
:102240006F937F938F939F93AF93BF93EF93FF937E
:102250008091B900887F803609F44AC0F0F5883251
:1022600009F4A7C018F5803109F49BC0B8F488239D
:1022700009F4F9C0883009F494C0FF91EF91BF913F
:10228000AF919F918F917F916F915F914F913F910E
:102290002F910F900FBE0F901F901895883109F461
:1022A00088C0803251F780932C0414C0803409F424
:1022B0009DC040F48033B9F38833F9F680932C0441
:1022C00085ECB0C0803509F485C0883509F496C026
:1022D000883499F60E94EF0FD0CF883909F48CC06A
:1022E00038F5883729F050F4883611F0803729F610
:1022F00083E080932E041092D40257C0883809F4EA
:102300007BC0803919F0803809F0B7CF8091D402B2
:10231000803208F071C0E091D40281E08E0F80938A
:10232000D4028091BB00F0E0EC54FD4F80833DC0AF
:10233000803B39F0E0F4803A09F479C0883A09F03A
:102340009CCF84E080932E041092B1021092B002D0
:10235000E091AE02F091AF0209958091B002811137
:102360000FC081E08093B00210928E0209C0803CC1
:1023700009F4A6CF883C09F4A3CF883B09F07DCFB0
:10238000E091B10281E08E0F8093B102F0E0E2575C
:10239000FD4F80818093BB009091B1028091B0028B
:1023A00029C0809109048093BB0085EC8093BC0018
:1023B00064CF90912B0480912A04981758F5E091EE
:1023C0002B0481E08E0F80932B04F0E0E65FFB4F3F
:1023D0008081E9CFE0912B0481E08E0F80932B0464
:1023E0008091BB00F0E0E65FFB4F808390912B046F
:1023F00080912A049817C8F285E8D8CFE0912B0481
:1024000081E08E0F80932B048091BB00F0E0E65FAB
:10241000FB4F808380912D0481115CCF81E08093FC
:10242000080484EA8093BC0010922E0426CF85EC29
:102430008093BC0010922E048091D402803230F43C
:10244000E091D402F0E0EC54FD4F10826091D40290
:1024500070E0E091B202F091B30284EB92E0099552
:102460001092D4020ACF10922C0434CFE8E5F4E0A5
:102470001382128288EE93E0A0E0B0E0848395831B
:10248000A683B7832CEF31E03183208325EC30E045
:102490003587248724EC30E03787268720EC30E02E
:1024A000318B208B21EC30E0338B228B22EC30E01F
:1024B000358B248B26EC30E0378B268B118E128ED9
:1024C000138E148EE5EFF4E01382128284839583D9
:1024D000A683B7838EE092E09183808384E6809325
:1024E0000D05E5E0F5E080E197E2A0E0B0E0808353
:1024F0009183A283B38314821582168217822FB729
:10250000F8948091010590910205A0910305B09186
:1025100004052FBF84839583A683B7830895789499
:1025200084B5826084BD84B5816084BD85B58260D8
:1025300085BD85B5816085BD80916E008160809389
:102540006E001092810080918100826080938100F2
:102550008091810081608093810080918000816002
:10256000809380008091B10084608093B10080915D
:10257000B00081608093B00080917A008460809385
:102580007A0080917A00826080937A0080917A004C
:10259000816080937A0080917A00806880937A00CD
:1025A0001092C100E0916804F091690482E0808398
:1025B000E0916404F09165041082E0916604F0916A
:1025C000670480E1808310927004E0916C04F091C4
:1025D0006D0486E08083E0916A04F0916B04808151
:1025E00080618083E0916A04F0916B04808188604F
:1025F0008083E0916A04F0916B048081806880831D
:10260000E0916A04F0916B0480818F7D808388E57E
:1026100094E00E9492050E94300965E3262E62E054
:10262000362E88E594E00E940305181619060CF46E
:102630007EC01092B3031092B2032FB7F89460914A
:1026400001057091020580910305909104052FBF4B
:102650000091090510910A0520910B0530910C0598
:10266000601B710B820B930B2091050530910605C1
:1026700040910705509108050E94A115232B89F070
:102680008091B4039091B503A091B603B091B703C4
:10269000892B8A2B8B2B09F0DFC0109204010E943A
:1026A0003009C091DF03D091E003209709F490C175
:1026B000C0FF18C08091DD039091DE030E941A09CB
:1026C000A8E7B0E0B0930B01A0930A01B1E0B0938A
:1026D000DC031092DB031092DA03CE7FD093E00389
:1026E000C093DF038091DF0381FF72C18091B80343
:1026F0009091B903EAEBF3E030E020E048E853E1E1
:10270000019709F072C1D0E0C0E001911191808180
:1027100091819E012F5F3F4F0817190709F08EC165
:10272000E9012E30310589F730E020E022C188E54B
:1027300094E00E940305181619060CF071C088E594
:1027400094E00E94E10420918D0330918E03F90101
:10275000E35CFC4F8A3009F053C0108210928E0364
:1027600010928D03EDE3F3E0F093B303E093B20333
:10277000309709F462CF1092B1031092B003AFE822
:10278000B3E040E21D924A95E9F780818823B9F0D1
:10279000DF01808131968032D9F38930C9F31097F7
:1027A00071F0CFE8D3E090E080E02C91222319F083
:1027B00080319105C1F59093B1038093B00380916E
:1027C000B0039091B103892BE9F1C4ECD1E051E061
:1027D000C83DD507B9F16881798180918F039091C7
:1027E00090030E942816892B49F4EA81FB816FE847
:1027F00073E08091B0039091B10309952496E7CFDF
:1028000080832F5F3F4F30938E0320938D032035BD
:10281000310509F08CCF10928E0310928D0309CFF1
:10282000F0E0E0E0A1CFA993B9934A2F3B2F2D917F
:10283000203209F4F7C0293009F4F4C02111F5CF92
:102840000196B9CF8091AF03882309F4F6CE81E5D4
:1028500097E00E94B205F1CE2FB7F8948091010560
:1028600090910205A0910305B09104052FBF8093BC
:10287000090590930A05A0930B05B0930C051092DF
:10288000B4031092B5031092B6031092B70309CFA8
:102890006E017801CFEFDFEF0FEF1FEFC901880F57
:1028A000991FAC0146545C4F2A01712C612C812C7C
:1028B000912C54012E3031050CF053C0A201D201ED
:1028C000ED91FD912D018D919C91DA0112974D9121
:1028D0005C91E417F5071CF18E179F07ECF40F3F8E
:1028E0001007C1F0CF01801B910BB9016C1B7D0B50
:1028F0000E948D1577FF03C0719561957109072EB0
:10290000000C880B990B860E971EA81EB91E4FEF60
:10291000641A740A69017F012F5F3F4FCBCF8E1776
:102920009F07D4F35FEFE516F506C1F0C7018E1BD4
:102930009F0BB601621B730B0E948D1577FF03C0BE
:10294000719561957109072E000C880B990B860E05
:10295000971EA81EB91E8FEF681A780AE9018F0129
:10296000DBCF9301770C440B550BC501B4010E94DA
:10297000C3158091080190910901821793070CF00B
:102980004CC08091DA039091DB0301969093DB03B6
:102990008093DA034091060150910701841795074F
:1029A00074F080910501882351F03F932F933F925B
:1029B0002F920E94FA0C0F900F900F900F90809121
:1029C000DF039091E0038D7F9093E0038093DF031A
:1029D00040E050E0452B09F424CE0E940F058823E7
:1029E00009F41FCE0E9400001CCE819191918417A2
:1029F00095070CF4AC01281739070CF49C01A8EDDD
:102A0000B3E0AE17BF0789F7241B350B37FF02C0B1
:102A10002F5F3F4F35952795ACCF1092DB03109277
:102A2000DA03CDCFE42FF32F1192DF01208131960D
:102A30002032D9F32930C9F30196B7CE8017910718
:102A40000CF426CFCC24CA94DC2CEE24EA94FE2C81
:102A500025CF9927882708950E946E15A59F900D70
:102A6000B49F900DA49F800D911D112408952F9265
:102A70003F924F925F926F927F928F929F92AF920E
:102A8000BF92CF92DF92EF92FF920F931F93CF935B
:102A9000DF93CDB7DEB7CA1BDB0B0FB6F894DEBFF2
:102AA0000FBECDBF09942A88398848885F846E8418
:102AB0007D848C849B84AA84B984C884DF80EE8062
:102AC000FD800C811B81AA81B981CE0FD11D0FB66B
:102AD000F894DEBF0FBECDBFED010895A29FB001F7
:102AE000B39FC001A39F700D811D1124911DB29F42
:102AF000700D811D1124911D0895DB018F939F930B
:102B00000E942C15BF91AF91A29F800D911DA39F94
:102B1000900DB29F900D1124089597FB072E16F487
:102B2000009407D077FD09D00E94F11507FC05D06D
:102B30003EF4909581959F4F0895709561957F4FD4
:102B40000895A1E21A2EAA1BBB1BFD010DC0AA1FEE
:102B5000BB1FEE1FFF1FA217B307E407F50720F006
:102B6000A21BB30BE40BF50B661F771F881F991F81
:102B70001A9469F760957095809590959B01AC01CA
:102B8000BD01CF010895052E97FB1EF400940E940D
:102B9000DA1557FD07D00E94A11507FC03D04EF4AB
:102BA0000C94DA1550954095309521953F4F4F4F35
:102BB0005F4F089590958095709561957F4F8F4FE9
:102BC0009F4F08950E946E15B7FF0895821B930BC7
:102BD0000895B7FF0C942C150E942C15821B930BA3
:102BE0000895AA1BBB1B51E107C0AA1FBB1FA61754
:102BF000B70710F0A61BB70B881F991F5A95A9F7A6
:102C000080959095BC01CD010895EE0FFF1F0590B2
:102C1000F491E02D099491110C94291580538A5058
:102C200018F0865C0C941816089585FD0C942915EF
:102C3000806291110C94291581568A51D8F7089514
:102C40009111089581568A5108F48052855808954B
:102C5000FB01DC018D91019080190110D9F3990BD2
:102C60000895AEE0B0E0E7E3F6E10C9445158C0181
:102C7000FA0186E08C831A83098377FF02C060E043
:102C800070E8615071097E836D83A901BF01CE0197
:102C900001960E945D164D815E8157FD0AC02F810D
:102CA0003885421753070CF49A01020F131FF801DD
:102CB00010822E96E4E00C946115ABE0B0E0E3E600
:102CC000F6E10C9437157C013B018A01FC01178267
:102CD0001682838181FFC8C1CE0101965C01F70194
:102CE0009381F30193FD859193FF81913F018823A7
:102CF00009F453C1853239F493FD859193FF819195
:102D00003F01853229F4B70190E00E944D18E7CFCA
:102D1000912C212C312CFFE1F31538F08B3211F17D
:102D200090F4803209F1833229F137FC3CC020ED68
:102D3000280F2A3050F536FE20C08AE0989E200DDC
:102D40001124922E06C08D3291F0803371F7689471
:102D500030F8F30193FD859193FF81913F0181113B
:102D6000DACF21C0689431F8689432F8F2CF6894D1
:102D700033F8EFCF689434F8ECCFEAE02E9E200DC4
:102D80001124222E689435F8E4CF8E3229F436FCD3
:102D900004C1689436F8DDCF8C3619F4689437F89E
:102DA000D8CF8836B1F2982F9F7D95549330E0F0BC
:102DB0008336A1F18337C1F1833509F063C028015F
:102DC000F2E04F0E511CF801C080D180692D70E0F7
:102DD00036FC02C06FEF7FEFC6010E9437184C012E
:102DE000689437F882010AC00C5F1F4FFFE3F98334
:102DF00088248394912C6501E89437F833FE2DC024
:102E0000522C8114910471F5552009F468CFB70153
:102E100080E290E00E944D185A94F6CFF80180812C
:102E200089830E5F1F4FE4CF2801F2E04F0E511C43
:102E3000F801C080D180692D70E036FC02C06FEFD0
:102E40007FEFC6010E9442184C018201D5CFB70125
:102E500080E290E00E944D182A942814190409F089
:102E6000B0F7CECFF60137FC859137FE81916F0127
:102E7000B70190E00E944D1851105A94F1E08F1A5A
:102E80009108BFCF843619F0893609F077C0F80170
:102E900037FE6BC060817181828193810C5F1F4F0F
:102EA000F32DFF763F2E97FF09C090958095709582
:102EB00061957F4F8F4F9F4F689437F82AE030E03D
:102EC000A5010E947D18C82ECA188C2C432C36FEF2
:102ED0000CC0E89440F8C91440F434FE05C032FC3C
:102EE00003C0F32DFE7E4F2E892C44FE95C0FE01BB
:102EF000EC0DF11D8081803309F087C0242D297EDF
:102F0000422E842D8870582E43FC95C040FE8FC001
:102F10009C2C821418F42C0C922C981844FE91C00E
:102F2000B70180E390E00E944D1842FE09C088E797
:102F300090E041FE02C088E590E0B7010E944D1884
:102F4000C91408F48AC0CA94D12C9FEFC91AD90AAF
:102F5000CA0CDB1CF60182916F01B70190E00E9460
:102F60004D18AC14BD04B1F74FCF60817181072EAD
:102F7000000C880B990B0E5F1F4F92CFD32CE89457
:102F8000D4F82AE030E0853739F1232D297FD22E7D
:102F90008F3601F148F48835A9F0F70186819781D1
:102FA0002B96E2E10C945315803749F08837A9F746
:102FB000D4FE02C06894D2F820E130E00DC06894DD
:102FC000D4F8F6CF34FE03C0822F8660D82E20E1DD
:102FD00032E002C028E030E0F801D7FE0FC0608187
:102FE0007181828193810C5F1F4FA5010E947D1822
:102FF000C82ECA183D2CE89437F867CF60817181DC
:1030000090E080E00E5F1F4FF0CF42FC02C083943F
:1030100078CF8394839475CF842D867809F471CF0B
:10302000F6CFB70180E290E00E944D18839482149D
:10303000C0F3512C73CF522C5818821408F46ECF61
:10304000F8CF842D867809F47BCF8BE241FE80E2B5
:1030500047FC8DE2B70190E071CFB70180E390E0CB
:103060000E944D189A946CCF8FEF9FEF99CFFC017F
:103070000590615070400110D8F7809590958E0FA3
:103080009F1F0895FC016150704001900110D8F716
:10309000809590958E0F9F1F08950F931F93CF9348
:1030A000DF93182F092FEB018B8181FD09C01FEFE2
:1030B0000FEF812F902FDF91CF911F910F910895E6
:1030C00082FF14C02E813F818C819D812817390792
:1030D0003CF4E881F981CF010196998388831083BC
:1030E0008E819F8101969F838E83E3CFE885F9854A
:1030F000812F0995892BA1F3DACFFA01AA2728306D
:1031000051F1203181F1E8946F936E7F6E5F7F4FB4
:103110008F4F9F4FAF4FB1E03ED0B4E03CD0670F30
:10312000781F891F9A1FA11D680F791F8A1F911D83
:10313000A11D6A0F711D811D911DA11D20D009F4D3
:1031400068943F912AE0269F11243019305D319315
:10315000DEF6CF010895462F4770405D4193B3E0FE
:103160000FD0C9F7F6CF462F4F70405D4A3318F0A5
:10317000495D31FD4052419302D0A9F7EACFB4E056
:10318000A6959795879577956795BA95C9F700970E
:103190006105710508959B01AC010A2E06945795AF
:1031A000479537952795BA95C9F7620F731F841F06
:0A31B000951FA01D0895F894FFCFAD
:1031BA00A404A40401010100640078009D007F00BA
:1031CA007C006800340120011703D302CE029B025F
:1031DA0098027C027702350232021A021002E201D8
:1031EA00DF01BF01BC01A0019D018901D80472045D
:1031FA006F0448043F0419040D04990396038203DB
:10320A00F205DE05D205AB05A80592058F058105F5
:10321A007E056A051B01F900E400A0000C0102000A
:10322A006E680084015601510137011401010068DA
:10323A0000523A543A74503A70413A496968007BEC
:10324A00035C034C0321031801090072773A613ABF
:10325A00413A680061053E052C05E3043C0105007E
:10326A00703A483A76526800510639062906FE0530
:10327A00500105004302DE0E4A02FE0D5302E30B23
:10328A005A02B10C5F026E0CC101E11F21FFC2019B
:10329A0002094301831CC41CC501C601861CC91C42
:1032AA00CC1C8C1CCF1D18FD000000004505A50490
:1032BA00D20492050305E104F504000000003F066C
:1032CA001206E805C505FA03D505C6056F66660048
:1032DA00417661696C61626C6520636F6D6D616EC8
:1032EA0064733A20004D3A25640A00307825303458
:1032FA00580A006D6F74696F6E007269636877614E
:10330A0076650073797374656D006563686F00682C
:04331A00656C70006E
:00000001FF
