:100000000C94D0030C94B4100C948D100C94F80341
:100010000C94F8030C94F8030C94F8030C94F80374
:100020000C94F8030C94F8030C94F8030C94F80364
:100030000C94F8030C94F8030C94F8030C94F80354
:100040000C9443100C94F8030C9401110C94DB10E5
:100050000C94F8030C94F8030C94F8030C94F80334
:100060000C9433110C94F8037072696E7420486517
:100070006C70206D6573736167652E002D68004E8E
:100080006F74207072696E74204E6577204C696EB3
:1000900065206368617261637465722E002D6E0065
:1000A0007072696E7420535452494E4720746F2009
:1000B000636F6E736F6C6520746F20746573742E3C
:1000C000204F6E6C7920666972737420776F72644A
:1000D0002073686F756C64206265207072696E743D
:1000E00065642E006563686F205B4F5054494F4E26
:1000F0005D20535452494E47007072696E742061FE
:100100007267756D656E7420737472696E672074A2
:100110006F20636F6E736F6C652E006563686F0090
:100120007072696E742048656C70206D65737361C0
:1001300067652E002D680053686F777320617661C4
:10014000696C61626C6520636F6D6D616E64732EA6
:100150000068656C700053686F77732068656C7019
:10016000206D65737361676520666F7220636F6DC4
:100170006D616E64206C696E6520636F6D6D616E7C
:1001800064732E0068656C70007072696E7420482C
:10019000656C70206D6573736167652E002D680056
:1001A00044697361626C6520696E74657272757002
:1001B0007420666F7220746573742E002D69004977
:1001C0006E697469616C697A65207468652073650D
:1001D0006E736F7220627920666F7263652E002DD8
:1001E00049004F6E2F6F666620617070726F616399
:1001F0006820646574656374696F6E206D6F6465F3
:100200002E2064656661756C743D206F66662E00F5
:100210002D41206F6E7C6F666600526561642074AC
:1002200068652063757272656E7420706F77657291
:100230002E002D700053657420746865205246208E
:10024000706F7765722E204769766520616E206930
:100250006E74656765722066726F6D202D32207432
:100260006F2031332E2064656661756C743D202DDE
:10027000322064426D2E002D50204E0020526561C8
:100280006420746865207265706F7274207468727F
:100290006573686F6C642E002D7400536574207450
:1002A0006865207265706F72742074687265736817
:1002B0006F6C6420746F204E2E2064656661756CCF
:1002C000742076616C75653D203130302E002D54E0
:1002D000204E004F6E2F6F6666207265706F7274CD
:1002E000696E67206D6F76656D656E742076616CE2
:1002F0007565206C6172676572207468616E207428
:1003000068726573686F6C642E2064656661756CD5
:10031000743D206F6E2E002D52206F6E7C6F6666CE
:1003200000566172696F757320636F6D6D616E64E5
:100330007320746F20636F6E74726F6C206D6F74B6
:10034000696F6E2073656E736F722E006D6F7469C6
:100350006F6E205B4F5054494F4E5D004D6F746976
:100360006F6E2073656E736F7220636F6E74726F41
:100370006C2070726F6772616D2E006D6F74696FA3
:100380006E007072696E742048656C70206D6573C4
:10039000736167652E002D68004F6E202F206F66F9
:1003A00066204144432076616C7565207265616CFE
:1003B0002D74696D652073747265616D696E672E49
:1003C00028696E206D56290A0909090969662061A4
:1003D000206E756D626572204E20697320676976A4
:1003E000656E2C204E2073616D706C65732077698B
:1003F0006C6C206265206F7574207468656E207364
:10040000746F702073656E64696E672E002D4120D5
:100410006F6E7C6F66667C4E005772697465205BF8
:1004200076616C75655D20746F20746865207265F7
:10043000736973746572207072657365742E002D14
:10044000772076616C75650052656164207468651B
:100450002072656769737465722066726F6D2070B3
:10046000726573657420616464726573732E002D08
:1004700072005365742074617267657420726567D9
:100480006973746572206164647265737320746F3C
:1004900020726561642F77726974652E0A090909F3
:1004A000094966206E6F74207365742C207468652A
:1004B000206C617374206164647265737320776962
:1004C0006C6C2072657461696E2E2064656661755E
:1004D0006C74203D20302E002D61206164647265B3
:1004E00073730052656164206F722077726974655E
:1004F00020525443363031322E20536574206164CB
:1005000064726573732066697273742C20746865F5
:100510006E20726561642066726F6D206F72207745
:1005200072697465206F6E2069742E007269636849
:1005300077617665205B4F5054494F4E5D005265A0
:1005400061642F7772697465205269636877617698
:100550006520636869702C20525443363031322E46
:10056000007269636877617665005072696E742005
:1005700048656C70206D6573736167652E002D682A
:100580000052657365742073797374656D2E002D48
:1005900052005072696E742076657273696F6E20B6
:1005A000737472696E672E002D76004F6E202F20B7
:1005B0006F6666207468652068656C70206D657371
:1005C00073616765206F6620616C6C206170707369
:1005D0002E002D48205B6F6E7C6F66665D004F6E4F
:1005E000202F206F6666207468652070726F6D70B2
:1005F00074002D70205B6F6E7C6F66665D005379B2
:100600007374656D20636F6E74726F6C2070726F9F
:100610006772616D2C206E6F74206F7267616E69F6
:100620007A6564207965742E0073797374656D2022
:100630005B4F5054494F4E5D0053797374656D2084
:10064000636F6E74726F6C2070726F6772616D2E63
:100650000073797374656D000A0009000A09000AC5
:10066000000A4465736372697074696F6E0A0900E9
:100670000A000A55736167650A09000A00202D20E7
:10068000000A4E616D650A0900092A2054797065D7
:10069000202773797374656D202D70206F6E27206D
:1006A000746F20736565207468652070726F6D705B
:1006B000742E0A092A20547970652027737973747F
:1006C000656D202D48206F6E2720746F207365653F
:1006D000207468652068656C70206F6620656163B2
:1006E000682070726F6772616D2E0A00FEFFFFFF57
:1006F00000000100020003000400050006000700DE
:10070000080009000A000B000C000D005058532D82
:1007100050502048572D76322046572D76312E30B6
:100720002D424E353736204170722032372032301C
:1007300032322031353A34323A3433000A00000084
:100740000000240027002A004D3A52656164790AAE
:1007500000505853202420000000000025002800ED
:100760002B00040404040404040402020202020232
:100770000303030303030102040810204080010265
:1007800004081020010204081020000000080002E4
:1007900001000003040700000000000000005212E6
:1007A00011241FBECFEFD8E0DEBFCDBF25E0A8E605
:1007B000B2E001C01D92A231B207E1F712E0A0E061
:1007C000B1E0E2EFF1E302C005900D92A836B10767
:1007D000D9F713E0C0EDD3E004C02197FE010E94D9
:1007E0002116CF3CD107C9F70E94AB120C94F71821
:1007F0000C9400008091EA039091EB03891B990B04
:10080000089590E0FC01E657F84F2491FC01EA5866
:10081000F84F3491FC01EE59F84FE491EE23C9F002
:10082000222339F0233001F1A8F4213019F12230CC
:1008300029F1F0E0EE0FFF1FE85AF84FA591B491AF
:100840008FB7F894EC91611126C030953E233C930C
:100850008FBF08952730A9F02830C9F0243049F718
:10086000809180008F7D03C0809180008F7780937E
:100870008000DFCF84B58F7784BDDBCF84B58F7DDB
:10088000FBCF8091B0008F778093B000D2CF809162
:10089000B0008F7DF9CF3E2BDACF3FB7F89480912F
:1008A000E6039091E703A091E803B091E90326B530
:1008B000A89B05C02F3F19F00196A11DB11D3FBF98
:1008C000BA2FA92F982F8827BC01CD01620F711D67
:1008D000811D911D42E0660F771F881F991F4A9561
:1008E000D1F708958F929F92AF92BF92CF92DF92ED
:1008F000EF92FF924B015C010E944D046B017C0161
:100900000E944D046C197D098E099F09683E734051
:1009100081059105A8F321E0821A9108A108B10888
:1009200088EEC80E83E0D81EE11CF11C81149104EE
:10093000A104B10429F7FF90EF90DF90CF90BF9012
:10094000AF909F908F9008950895AF92BF92CF92ED
:10095000DF92EF92FF920F931F93CF93DF936C017F
:100960007B018B01040F151FEB015E01AE18BF0860
:10097000C017D10759F06991D601ED91FC91019012
:10098000F081E02DC6010995892B79F7C501DF912A
:10099000CF911F910F91FF90EF90DF90CF90BF907C
:1009A000AF900895FC01538D448D252F30E0842FA6
:1009B00090E0821B930B541710F0CF960895019787
:1009C0000895FC01918D828D981761F0A28DAE0F74
:1009D000BF2FB11D5D968C91928D9F5F9F73928FFB
:1009E00090E008958FEF9FEF0895FC01918D828D27
:1009F000981731F0828DE80FF11D858D90E00895F4
:100A00008FEF9FEF0895FC01918D228D892F90E04B
:100A1000805C9F4F821B91098F73992708958CE505
:100A200094E00E94030521E0892B09F420E0822F45
:100A3000089580E090E0892B29F00E940F05811134
:100A40000C9400000895FC01A48DA80FB92FB11DCE
:100A5000A35ABF4F2C91848D90E001968F739927F4
:100A6000848FA689B7892C93A089B1898C918370D2
:100A700080648C93938D848D981306C00288F389CB
:100A8000E02D80818F7D80830895EF92FF920F93F8
:100A90001F93CF93DF93EC0181E0888F9B8D8C8D2A
:100AA00098131AC0E889F989808185FF15C09FB71E
:100AB000F894EE89FF896083E889F98980818370E1
:100AC000806480839FBF81E090E0DF91CF911F9190
:100AD0000F91FF90EF900895F62E0B8D10E00F5FB1
:100AE0001F4F0F731127E02E8C8D8E110CC00FB687
:100AF00007FCFACFE889F989808185FFF5CFCE011F
:100B00000E942305F1CFEB8DEC0FFD2FF11DE35A71
:100B1000FF4FF0829FB7F8940B8FEA89FB898081A1
:100B20008062CFCFCF93DF93EC01888D8823B9F01B
:100B3000AA89BB89E889F9898C9185FD03C08081E8
:100B400086FD0DC00FB607FCF7CF8C9185FFF2CF65
:100B5000808185FFEDCFCE010E942305E9CFDF9193
:100B6000CF910895CF93DF93EC01FE01649166234A
:100B700039F08CE594E00E9445052196892BA9F770
:100B8000DF91CF910895089508950895E091EB03C2
:100B90008091EA03E81730F4F0E0E451FC4F8081E3
:100BA00090E008958FEF9FEF08959091EB0380916F
:100BB000EA032FEF3FEF981748F4E92FF0E0E451F4
:100BC000FC4F208130E09F5F9093EB03C9010895B3
:100BD00090E080E008952091B402260F3327331F60
:100BE00021323105ECF420913204FC0190E080E0E8
:100BF000243069F082E00895A091B4022191AC0103
:100C00004E565D4FA40FB52FB11D2C93019686173C
:100C100098F38091B402680F6093B40280E0089565
:100C200081E00895CF92DF92EF92FF920F931F938E
:100C3000CF93DF937C01CB018A01209138042223DA
:100C400089F0EB016B01C40ED51ECC15DD0569F0F2
:100C50006991D701ED91FC910190F081E02DC701E0
:100C60000995F3CF642F0E94EB05C801DF91CF9166
:100C70001F910F91FF90EF90DF90CF900895CF9349
:100C8000DF931F92CDB7DEB769832091380422230A
:100C9000F9F020915B04203258F021E030E0FC01B3
:100CA0003383228390E080E00F90DF91CF9108950D
:100CB00080913904E82FF0E0E65CFB4F9981908346
:100CC0008F5F8093390480935B0481E090E0ECCFE8
:100CD00061E0CE0101960E94EB05F7CF109232043D
:100CE00081E08093310410920C0461E082E10E9463
:100CF000010461E083E10E940104E9EBF0E08081FE
:100D00008E7F808380818D7F808388E48093B8008C
:100D100085E48093BC000895CF93DF9391E0909396
:100D200091028823B9F0C091B800D091BA008091A7
:100D3000BC008A7B8093BC0060E082E10E940104D9
:100D400060E083E10E9401040E946E06D093BA0025
:100D5000C093B800DF91CF9108958F929F92AF9288
:100D6000BF92CF92DF92EF92FF920F931F93CF9398
:100D7000DF93D0915B04D13208F0D7C0182FC09117
:100D80005A040E944D046B017C0180913204811150
:100D90006BC082E080933204109331048FEF809314
:100DA000300410922F04D0932E04AAE3B4E0EEE0B6
:100DB000F4E080E0D81391C010920D0480910D04EE
:100DC000CC0FC82BC0930D0480910C04813009F026
:100DD00088C010920C040E944D046B017C0180912C
:100DE0000D048093BB008091340490913504A09150
:100DF0003604B0913704892B8A2B8B2BA1F00E94EB
:100E00004D04009134041091350420913604309142
:100E100037046C197D098E099F09061717072807E3
:100E2000390708F442C08091BC0083FDD8CF85EC1F
:100E30008093BC000E944D046B017C0180913204C0
:100E4000823009F450C0809130048F3F09F46FC0A4
:100E500080913004803209F46CC08091300480337A
:100E600009F469C084E026C080913404909135046F
:100E7000A0913604B0913704892B8A2B8B2B09F46F
:100E800084CF0E944D048090340490903504A0904B
:100E90003604B09037046C197D098E099F098616B7
:100EA0009706A806B90608F070CF809133040E9417
:100EB0008C0685E01092390410925B04109238047D
:100EC000DF91CF911F910F91FF90EF90DF90CF9026
:100ED000BF90AF909F908F9008959D9191938F5F59
:100EE00069CF85EEA5CF8091340490913504A0910F
:100EF0003604B0913704892B8A2B8B2B09F49ECFB3
:100F00000E944D0400913404109135042091360460
:100F1000309137046C197D098E099F090617170750
:100F20002807390708F08ACFC0CF81E0C3CF80E01F
:100F3000C1CF82E0BFCF83E0BDCFCF93DF93EB0182
:100F400091E09093380494E690935A0410923904F7
:100F500010925B04682F89EF94E00E943F066D2F8A
:100F600089EF94E00E943F066C2F89EF94E00E9485
:100F70003F0681E0DF91CF910C94AD0610923E03C5
:100F800010923D031092400310923F030895EF9298
:100F9000FF920F931F93CF93DF9320916902222337
:100FA00009F456C0EC0181E896E00E94B205888100
:100FB00099810E94B2058DE796E00E94B2058A8170
:100FC0009B810E94B2058BE796E00E94B20582E702
:100FD00096E00E94B2058C819D810E94B20580E757
:100FE00096E00E94B20581E696E00E94B2058E81ED
:100FF0009F810E94B2058FE596E00E94B20510E045
:1010000000E08A859B850817190714F5C801880F29
:10101000991F880F991FE884F984E80EF91E8CE562
:1010200096E00E94B205F701808191810E94B2058D
:101030008AE596E00E94B205F701828193810E94C1
:10104000B20588E596E00E94B2050F5F1F4FD9CF29
:10105000DF91CF911F910F91FF90EF900895CF9264
:10106000DF92EF92FF920F931F93CF9391E09093B3
:10107000380494E690935A041092390410925B0459
:10108000682F89EF94E00E943F0681E00E94AD0640
:101090000E944D046B017C0180913204811164C077
:1010A00081E080933204809331049FEF9093300469
:1010B00010922F0480932E0480930D0480910D04D0
:1010C000886C80930D0480910C04813009F08CC0F1
:1010D00010920C040E944D046B017C0180910D0460
:1010E0008093BB008091340490913504A091360424
:1010F000B0913704892B8A2B8B2BA1F00E944D04D1
:101100000091340410913504209136043091370455
:101110006C197D098E099F090617170728073907DB
:1011200008F443C08091BC0083FDD8CF85EC809348
:10113000BC000E944D046B017C018091320481301F
:1011400009F454C080912F04823008F071C080915E
:101150002F04AEE0B4E0ECEEF3E090E0981751F12C
:101160002D9121939F5FFACF8091340490913504A3
:10117000A0913604B0913704892B8A2B8B2B09F46C
:101180008BCF0E944D0400913404109135042091BE
:101190003604309137046C197D098E099F090617B2
:1011A00017072807390708F077CF809133040E948A
:1011B0008C0680E01092EB038093EA038230F0F318
:1011C00089EF94E00E94D505C82F89EF94E00E9432
:1011D000D50520E0822B9C2BCF911F910F91FF9082
:1011E000EF90DF90CF90089585EEA1CF80913404E9
:1011F00090913504A0913604B0913704892B8A2B45
:101200008B2B09F49ACF0E944D0400913404109165
:10121000350420913604309137046C197D098E090C
:101220009F09061717072807390708F086CFBDCF93
:1012300082E08FCFCF93DF93EC0186E20E942F08EC
:10124000BC017F7786E20E949D07CC0FDD1FC8524C
:10125000DE4F688179818BE0DF91CF910C949D07FF
:10126000CF93DF93F894E89884EA94E09093010197
:10127000809300011092E4031092E3031092E003C4
:1012800010928C0210928B0210928A0288E790E0F2
:1012900090930B0180930A011092DF031092DE03FA
:1012A0001092B8031092B9031092BA031092BB03C4
:1012B000789462E370E080E090E00E947204109203
:1012C000EB031092EA031092390410925B040E941F
:1012D0006E0683EC95E09093B3028093B20284ECA7
:1012E00095E09093B7028093B60288EF8093B800A0
:1012F00080E00E942F088838964109F0C0C081E044
:101300000E942F088130944009F0B9C063E170E970
:1013100082E00E949D0763E170E982E00E949D07E0
:1013200066E170E982E00E949D0764EF71E080E071
:1013300090E00E94720460E07EE08EE20E949D07D1
:1013400060E670E086E20E949D0764E87AE084E24D
:101350000E949D0761E67FE38CE20E949D0768E0A2
:1013600078E281E20E949D0767EF7FEF80E20E94B2
:101370009D0770E060E080E10E949D0770E060E002
:1013800081E10E949D076BE571E483E10E949D0766
:101390006BE571E484E10E949D0763E070E085E104
:1013A0000E949D0763E070E086E10E949D076BE26A
:1013B00070E087E10E949D076BE270E088E10E9487
:1013C0009D0762E070E789E10E949D0762E272E09A
:1013D00083E00E949D0763E073E885E00E949D071B
:1013E00060E070E786E00E949D0763E070E088E0BF
:1013F0000E949D076FEF78E189E00E949D0760E7FA
:101400007EEE8DE00E949D0766E174ED82E00E9411
:101410009D07E8E7F7E02491E4E6F7E08491811185
:1014200035C08AE19DE09093010180930001809195
:101430006900836080936900E89A80E197E2A0E008
:10144000B0E08093090590930A05A0930B05B09333
:101450000C052FB7F8948091050590910605A09191
:101460000705B09108052FBF80930D0590930E05D9
:10147000A0930F05B0931005DF91CF91089564E616
:1014800070E080E090E00E94720432CF90E0880F1C
:10149000991FFC01E25CF84FC591D491FC01E85A18
:1014A000F84FA591B4919FB7F8943881822F809519
:1014B00083238883EC91E22BEC939FBFB2CF0097FC
:1014C00069F0FC0101900020E9F73197AF01481B5A
:1014D000590BBC018CE594E00C94A50408954F923F
:1014E0005F926F927F928F929F92AF92BF92CF92B4
:1014F000DF92EF92FF920F931F93CF93DF938C01B4
:10150000EB01FC0101900020E9F731975F01A81A77
:10151000B90AE1E0F0E0C12CD12C7601C3942B0193
:10152000770F66087708EA15FB05A0F1812C912C4E
:1015300054012E010D2E000C66087708F8018191E8
:101540008F018823A1F1082E000C990BDC01D097A4
:10155000AA30B10570F0C031D10531F50E943C16BA
:10156000A82F8FEB8A0F8630F8F40A2E000CBB0BE5
:10157000D797A70196010E940516860E971EA81EF2
:10158000B91EC701B601A30192010E94BD156901F0
:101590007A01D4CFA7019601C301B2010E94991527
:1015A0006B017C013196BFCFB0E0A0E0E2CFC50176
:1015B000B401DF91CF911F910F91FF90EF90DF90D9
:1015C000CF90BF90AF909F908F907F906F905F90E3
:1015D0004F900895CF92DF92EF92FF920F931F9357
:1015E000CF93DF93FC0120812D32B1F401962FEFD0
:1015F0003FEF6901330FEE08FF08FC012081203323
:1016000021F421812F7D283569F0FC0121912111E0
:101610003AC06AE070E010C02B3209F4019621E074
:1016200030E0E7CFEC0122968E01F8018081811134
:1016300014C060E170E0CE010E946F0A9B01AC0112
:10164000C701B6010E949915DF91CF911F910F91AB
:10165000FF90EF90DF90CF900895082E000C990B2B
:101660000E943C16F8018083282F082E000C330BB3
:10167000205331092A30310518F08154863060F446
:101680000F5F1F4FD2CF022E000C330B20533109B6
:101690002A30310508F4BACF20E030E0A901D0CFDC
:1016A0007F928F929F92AF92BF92CF92DF92EF92F2
:1016B000FF920F931F93CF93DF936C0180913F03B1
:1016C00090914003892B31F481E090E090934003A6
:1016D00080933F03E0903F03F0904003EC14FD043F
:1016E0000CF06EC05701AA0CBB1CA60EB71ED5018C
:1016F0000D911C91F80180818D3209F061C0470184
:10170000FFEF8F1A9F0A9092400380923F0310923E
:101710003E0310923D03D80111969C91C92F092ECA
:10172000000CDD0BFA01DA018D91811103C0CFE3CA
:10173000D0E005C09813F8CF819181110FC0CE0180
:10174000DF91CF911F910F91FF90EF90DF90CF909D
:10175000BF90AF909F908F907F9008959813ECCF9B
:1017600080818A3349F7F8017280872D072C000C9D
:10177000990B0E942716892B31F4BBE27B1619F0D6
:10178000EDE27E1207C00E5F1F4F10933E030093E1
:101790003D03D5CF8C149D0454F6D5011296ED91DE
:1017A000FC9180818D3219F2F0933E03E0933D036A
:1017B000B2E0EB0EF11CF0924003E0923F03BFCF8A
:1017C000CFEFDFEFBCCF8F929F92AF92BF92DF92AD
:1017D000EF92FF920F931F93CF93DF938130910588
:1017E00079F488EB91E0DF91CF911F910F91FF90F9
:1017F000EF90DF90BF90AF909F908F900C94C707B1
:101800007B018C010E94BE07D0E0C0E0B12CA12C6E
:10181000DD24D39440EB51E0B701C8010E94500B86
:101820008F3F980709F44BC080379105D9F4809019
:101830003D0390903E036CE172E0C4010E944416A7
:10184000892B31F41092B303E5CFC1E0D0E0E2CFB1
:101850006BE472E0C4010E944416892BB1F7D09268
:10186000B303D8CF88349105C1F480903D039090A4
:101870003E036CE172E0C4010E944416892B19F406
:1018800010926902C7CF6BE472E0C4010E94441653
:10189000892BD9F6D0926902BDCF8637910549F4DC
:1018A0008CE097E00E94B2058CE397E00E94B205BD
:1018B000B1CF8235910549F6F5010995ABCFCD2B16
:1018C00009F08FCFDF91CF911F910F91FF90EF9093
:1018D000DF90BF90AF909F908F900895EF92FF920E
:1018E0000F931F93CF93DF938C017B010E94BE0760
:1018F000C0E04FE751E0B701C8010E94500B0196CC
:1019000061F4CC2361F083E791E0DF91CF911F91E7
:101910000F91FF90EF900C94C707C1E0EACF80E2EF
:1019200092E00E945F0AC4ECD1E081E0C83DD80794
:1019300051F0888199810E945F0A83E392E00E94BE
:101940005F0A2496F2CF85E492E00E945F0A89E85C
:1019500096E0DF91CF911F910F91FF90EF900C9443
:10196000B205EF92FF920F931F93CF93DF937C0109
:10197000EB010E94BE0711E000E040E751E0BE012C
:10198000C7010E94500B8F3F980739F08E369105A2
:1019900011F001E0F2CF10E0F0CF002351F084E627
:1019A00091E0DF91CF911F910F91FF90EF900C94F8
:1019B000C70780913F0390914003880F991FC80F7C
:1019C000D91F88819981009771F00E945F0A1123C5
:1019D00051F085E492E0DF91CF911F910F91FF903C
:1019E000EF900C945F0ADF91CF911F910F91FF90C0
:1019F000EF9008950F931F93CF93DF93CDB7DEB78A
:101A00009E01295F3F4FF901419151919F0163E68A
:101A100070E089ED92E00E944D168C0110923C031B
:101A200089ED92E00E945F0AC801DF91CF911F917A
:101A30000F910895CF92DF92EF92FF928091B803B9
:101A40009091B903A091BA03B091BB030196A11D77
:101A5000B11D8093B8039093B903A093BA03B093D8
:101A6000BB038091E00381110BC081E090E0909373
:101A7000E4038093E303FF90EF90DF90CF9008950D
:101A800080E480937C0080917A00806480937A0067
:101A900080917A0086FDFCCFA0917800B09179000A
:101AA00028E833E10E94FE156B017C013AE0F694D0
:101AB000E794D794C7943A95D1F780918D0290918D
:101AC0008E02A0918F02B0919002892B8A2B8B2BD2
:101AD00029F1DF92CF9285E392E09F938F930E944A
:101AE000FA0C80918D0290918E02A0918F02B0919C
:101AF00090020F900F900F900F908F3F2FEF920753
:101B0000A207B20759F00197A109B10980938D028C
:101B100090938E02A0938F02B093900280918C02DA
:101B200081113EC080910A0190910B010197909321
:101B30000B0180930A01892B09F09DCF81E08093EE
:101B40008C0280910401882321F088E497E00E94B0
:101B5000B20580E197E2A0E0B0E0809309059093A0
:101B60000A05A0930B05B0930C052FB7F89480914C
:101B7000050590910605A0910705B09108052FBFB6
:101B800080930D0590930E05A0930F05B09310055B
:101B90001092B8031092B9031092BA031092BB03CB
:101BA000E0918A02F0918B02CF01019690938B0213
:101BB00080938A02EE0FFF1FE659FD4FC082D1824B
:101BC0000F970CF458CFEAE6F2E0AEEBB3E088E80A
:101BD00092E0219131912D933D938E179F07C9F784
:101BE0008091E3039091E40382609093E4038093F7
:101BF000E30310928B0210928A023DCF3F924F92E4
:101C00005F926F927F928F929F92AF92BF92CF928C
:101C1000DF92EF92FF920F931F93CF93DF93813068
:101C20009105A9F484EA91E0DF91CF911F910F9182
:101C3000FF90EF90DF90CF90BF90AF909F908F90EC
:101C40007F906F905F904F903F900C94C7075B011F
:101C50004C010E94BE07D0E0C0E010E000E0442448
:101C60004A94542C32014BE951E0B501C4010E9461
:101C7000500B8F3F980709F470C081369105B1F47D
:101C800080913D0390913E03FC012081022E000CC7
:101C9000330B205331092A30310528F4C4600E94E7
:101CA000EA0A362EE0CF01E010E0DDCF8237910561
:101CB00011F4C160D8CF8737910599F480913D0325
:101CC00090913E03FC012081022E000C330B205327
:101CD00031092A30310538F7C2600E94EA0A6B01E7
:101CE000C2CF81349105F9F6E0903D03F0903E03B8
:101CF0006CE172E0C7010E944416892B49F41092EE
:101D00008D0210928E0210928F0210929002ABCF31
:101D10006BE472E0C7010E944416892B49F440929B
:101D20008D0250928E0260928F02709290029BCF31
:101D3000F7018081082E000C990BC0970A9708F0D4
:101D4000B2CFC7010E94EA0A60938D0270938E029F
:101D500080938F029093900286CFC2FD30926802EA
:101D6000C0FF10C0809168020E942F089F938F933C
:101D70008BE392E09F938F930E94FA0C0F900F9049
:101D80000F900F90C1FF05C0B601809168020E94BC
:101D90009D07012B09F046CFDF91CF911F910F9145
:101DA000FF90EF90DF90CF90BF90AF909F908F907B
:101DB0007F906F905F904F903F9008952F923F9249
:101DC0004F925F926F927F928F929F92AF92BF924B
:101DD000CF92DF92EF92FF920F931F93CF93DF93F7
:101DE00081309105B1F48FE891E0DF91CF911F919F
:101DF0000F91FF90EF90DF90CF90BF90AF909F90AA
:101E00008F907F906F905F904F903F902F900C94A9
:101E1000C7076B013C010E94BE07EE24E394F12C3E
:101E2000D0E0C0E024EA422E24E0522EAA24A3945B
:101E3000B12C07E312E042E0242E312C41E851E0BE
:101E4000B601C3010E94500B8F3F980709F4B5C03B
:101E500082359105E1F480903D0390903E036BE460
:101E600072E0C4010E944416892B39F481E080930A
:101E70000501E4CFC1E0D0E0E1CF6CE172E0C40144
:101E80000E944416892BB1F710920501D7CF8134F7
:101E9000910521F580903D0390903E036BE472E044
:101EA000C4010E944416892B49F4B092BD03A0924C
:101EB000BC033092070120920601C0CF6CE172E0B2
:101EC000C4010E944416892BA9F61092BD031092FA
:101ED000BC03B0920701A0920601B0CF80359105F6
:101EE00059F580913D0390913E030E94EA0A2CEE41
:101EF00036E0B0E0A0E0F90145915491461757074C
:101F0000A1F4B093E203A093E103CD010E941A096A
:101F10008CE390E090930B0180930A0110928C0265
:101F20001092DF031092DE0389CF11962E5F3F4F90
:101F3000A031B10501F782CF80379105B9F4E09166
:101F4000E103F091E203EE0FFF1FE451F94F859199
:101F500094919F938F931F930F930E94FA0C0F906D
:101F60000F900F900F90F12CE12C68CF84359105E4
:101F700059F480913D0390913E030E94EA0A7093C8
:101F80000901609308015ACF8437910531F480919B
:101F900009018F9380910801DDCF8934910519F4EF
:101FA0000E9430094BCF8936910509F063CFE8983C
:101FB000509201014092000141CFEF28B1F083E43B
:101FC00092E0DF91CF911F910F91FF90EF90DF9002
:101FD000CF90BF90AF909F908F907F906F905F90C9
:101FE0004F903F902F900C945F0ACD2B09F0FBCEC1
:101FF000DF91CF911F910F91FF90EF90DF90CF90E5
:10200000BF90AF909F908F907F906F905F904F9018
:102010003F902F90089585ED8093BC00809134040B
:1020200090913504A0913604B09137040796A11D14
:10203000B11D23E0B695A795979587952A95D1F779
:102040002091BC0024FD03C01092320408954091F9
:102050003404509135046091360470913704452B57
:10206000462B472B69F30097A105B10541F02AE201
:102070002A95F1F700C00197A109B109E1CF80913C
:1020800033040C948C061F920F920FB60F921124FA
:102090002F933F938F939F93AF93BF9380910505A9
:1020A00090910605A0910705B09108053091E503D0
:1020B00023E0230F2D3758F50196A11DB11D209364
:1020C000E5038093050590930605A0930705B0935B
:1020D00008058091E6039091E703A091E803B09191
:1020E000E9030196A11DB11D8093E6039093E703D8
:1020F000A093E803B093E903BF91AF919F918F91B3
:102100003F912F910F900FBE0F901F90189526E8CA
:10211000230F0296A11DB11DD2CF1F920F920FB6B1
:102120000F9211242F933F934F935F936F937F935D
:102130008F939F93AF93BF93EF93FF93E09102012F
:10214000F09103010995FF91EF91BF91AF919F919C
:102150008F917F916F915F914F913F912F910F9050
:102160000FBE0F901F9018951F920F920FB60F92EF
:1021700011242F933F934F935F936F937F938F938C
:102180009F93AF93BF93EF93FF93E0910001F09182
:1021900001010995FF91EF91BF91AF919F918F91AF
:1021A0007F916F915F914F913F912F910F900FBE53
:1021B0000F901F9018951F920F920FB60F92112437
:1021C0002F933F934F935F936F937F938F939F933F
:1021D000AF93BF93EF93FF938CE594E00E942305A8
:1021E000FF91EF91BF91AF919F918F917F916F91EF
:1021F0005F914F913F912F910F900FBE0F901F90C5
:1022000018951F920F920FB60F9211242F938F9350
:102210009F93EF93FF93E0916C04F0916D048081A4
:10222000E0917204F091730482FD1BC09081809153
:1022300075048F5F8F7320917604821741F0E091CF
:102240007504F0E0E45AFB4F958F80937504FF917D
:10225000EF919F918F912F910F900FBE0F901F9034
:1022600018958081F4CF1F920F920FB60F92112410
:102270002F933F934F935F936F937F938F939F938E
:10228000AF93BF93EF93FF938091B900887F80361F
:1022900009F44AC0F0F5883209F4A7C018F5803176
:1022A00009F49BC0B8F4882309F4F9C0883009F414
:1022B00094C0FF91EF91BF91AF919F918F917F91CA
:1022C0006F915F914F913F912F910F900FBE0F90A3
:1022D0001F901895883109F488C0803251F7809397
:1022E000300414C0803409F49DC040F48033B9F345
:1022F0008833F9F68093300485ECB0C0803509F45A
:1023000085C0883509F496C0883499F60E940B1070
:10231000D0CF883909F48CC038F5883729F050F4CB
:10232000883611F0803729F683E0809332041092CA
:10233000D80257C0883809F47BC0803919F080383A
:1023400009F0B7CF8091D802803208F071C0E091D7
:10235000D80281E08E0F8093D8028091BB00F0E01C
:10236000E854FD4F80833DC0803B39F0E0F4803A73
:1023700009F479C0883A09F09CCF84E08093320454
:102380001092B5021092B402E091B202F091B30241
:1023900009958091B40281110FC081E08093B4024D
:1023A0001092920209C0803C09F4A6CF883C09F43F
:1023B000A3CF883B09F07DCFE091B50281E08E0F7D
:1023C0008093B502F0E0EE56FD4F80818093BB0014
:1023D0009091B5028091B40229C080910D04809340
:1023E000BB0085EC8093BC0064CF90912F0480915A
:1023F0002E04981758F5E0912F0481E08E0F8093FA
:102400002F04F0E0E25FFB4F8081E9CFE0912F04E1
:1024100081E08E0F80932F048091BB00F0E0E25F9B
:10242000FB4F808390912F0480912E049817C8F25F
:1024300085E8D8CFE0912F0481E08E0F80932F04A0
:102440008091BB00F0E0E25FFB4F8083809131041C
:1024500081115CCF81E080930C0484EA8093BC00FE
:102460001092320426CF85EC8093BC001092320487
:102470008091D802803230F4E091D802F0E0E85444
:10248000FD4F10826091D80270E0E091B602F091A9
:10249000B70288EB92E009951092D8020ACF109209
:1024A000300434CFECE5F4E01382128288EE93E03E
:1024B000A0E0B0E084839583A683B7832CEF31E05E
:1024C0003183208325EC30E03587248724EC30E00D
:1024D0003787268720EC30E0318B208B21EC30E0F1
:1024E000338B228B22EC30E0358B248B26EC30E0D2
:1024F000378B268B118E128E138E148EE9EFF4E03B
:102500001382128284839583A683B7838EE092E040
:102510009183808384E680931105E9E0F5E080E112
:1025200097E2A0E0B0E080839183A283B38314821A
:102530001582168217822FB7F89480910505909125
:102540000605A0910705B09108052FBF84839583E8
:10255000A683B7830895789484B5826084BD84B5DA
:10256000816084BD85B5826085BD85B5816085BD8E
:1025700080916E00816080936E0010928100809146
:1025800081008260809381008091810081608093CE
:102590008100809180008160809380008091B100F3
:1025A00084608093B1008091B00081608093B0001E
:1025B00080917A00846080937A0080917A008260B2
:1025C00080937A0080917A00816080937A00809174
:1025D0007A00806880937A001092C100E0916C04C8
:1025E000F0916D0482E08083E0916804F0916904C9
:1025F0001082E0916A04F0916B0480E18083109274
:102600007404E0917004F091710486E08083E0919D
:102610006E04F0916F04808180618083E0916E048C
:10262000F0916F04808188608083E0916E04F09166
:102630006F04808180688083E0916E04F0916F0464
:1026400080818F7D80838CE594E00E9492050E94BA
:10265000300965E3262E62E0362E8CE594E00E9478
:102660000305181619060CF47EC01092B7031092D9
:10267000B6032FB7F8946091050570910605809117
:102680000705909108052FBF00910D0510910E05CB
:1026900020910F0530911005601B710B820B930B7D
:1026A0002091090530910A0540910B0550910C05C8
:1026B0000E94BD15232B89F08091B8039091B90336
:1026C000A091BA03B091BB03892B8A2B8B2B09F005
:1026D000DFC0109204010E943009C091E303D09141
:1026E000E403209709F490C1C0FF18C08091E10372
:1026F0009091E2030E941A09A8E7B0E0B0930B01A1
:10270000A0930A01B1E0B093E0031092DF031092AE
:10271000DE03CE7FD093E403C093E3038091E30311
:1027200081FF72C18091BC039091BD03EEEBF3E099
:1027300030E020E048E853E1019709F072C1D0E0B1
:10274000C0E001911191808191819E012F5F3F4FE7
:102750000817190709F08EC1E9012E30310589F7F4
:1027600030E020E022C18CE594E00E9403051816B9
:1027700019060CF071C08CE594E00E94E1042091F0
:10278000910330919203F901EF5BFC4F8A3009F01D
:1027900053C010821092920310929103E1E4F3E08F
:1027A000F093B703E093B603309709F462CF109229
:1027B000B5031092B403A3E9B3E040E21D924A9539
:1027C000E9F780818823B9F0DF018081319680327A
:1027D000D9F38930C9F3109771F0C3E9D3E090E0E1
:1027E00080E02C91222319F080319105C1F590935E
:1027F000B5038093B4038091B4039091B503892B02
:10280000E9F1C4ECD1E051E0C83DD507B9F16881E8
:10281000798180919303909194030E944416892BAF
:1028200049F4EA81FB8163E973E08091B4039091FC
:10283000B50309952496E7CF80832F5F3F4F3093F0
:102840009203209391032035310509F08CCF10922B
:1028500092031092910309CFF0E0E0E0A1CFA99399
:10286000B9934A2F3B2F2D91203209F4F7C029301C
:1028700009F4F4C02111F5CF0196B9CF8091B303CB
:10288000882309F4F6CE81E597E00E94B205F1CEE7
:102890002FB7F8948091050590910605A091070542
:1028A000B09108052FBF80930D0590930E05A0935E
:1028B0000F05B09310051092B8031092B90310924F
:1028C000BA031092BB0309CF6E017801CFEFDFEF9F
:1028D0000FEF1FEFC901880F991FAC0142545C4FE5
:1028E0002A01712C612C812C912C54012E30310540
:1028F0000CF053C0A201D201ED91FD912D018D91FB
:102900009C91DA0112974D915C91E417F5071CF147
:102910008E179F07ECF40F3F1007C1F0CF01801B0B
:10292000910BB9016C1B7D0B0E94A91577FF03C0A9
:10293000719561957109072E000C880B990B860E15
:10294000971EA81EB91E4FEF641A740A69017F0111
:102950002F5F3F4FCBCF8E179F07D4F35FEFE51666
:10296000F506C1F0C7018E1B9F0BB601621B730BEE
:102970000E94A91577FF03C0719561957109072E13
:10298000000C880B990B860E971EA81EB91E8FEFA0
:10299000681A780AE9018F01DBCF9301770C440BA9
:1029A000550BC501B4010E94DF158091080190917B
:1029B0000901821793070CF04CC08091DE039091BF
:1029C000DF0301969093DF038093DE0340910601BD
:1029D000509107018417950774F0809105018823B1
:1029E00051F03F932F933F922F920E94FA0C0F9039
:1029F0000F900F900F908091E3039091E4038D7FEF
:102A00009093E4038093E30340E050E0452B09F406
:102A100024CE0E940F05882309F41FCE0E940000D7
:102A20001CCE81919191841795070CF4AC01281765
:102A300039070CF49C01ACEDB3E0AE17BF0789F782
:102A4000241B350B37FF02C02F5F3F4F359527956D
:102A5000ACCF1092DF031092DE03CDCFE42FF32F23
:102A60001192DF01208131962032D9F32930C9F348
:102A70000196B7CE801791070CF426CFCC24CA94C8
:102A8000DC2CEE24EA94FE2C25CF99278827089584
:102A90000E948A15A59F900DB49F900DA49F800D54
:102AA000911D112408952F923F924F925F926F9241
:102AB0007F928F929F92AF92BF92CF92DF92EF92CE
:102AC000FF920F931F93CF93DF93CDB7DEB7CA1B4F
:102AD000DB0B0FB6F894DEBF0FBECDBF09942A887A
:102AE000398848885F846E847D848C849B84AA8422
:102AF000B984C884DF80EE80FD800C811B81AA81AF
:102B0000B981CE0FD11D0FB6F894DEBF0FBECDBF79
:102B1000ED010895A29FB001B39FC001A39F700D66
:102B2000811D1124911DB29F700D811D1124911DD5
:102B30000895DB018F939F930E944815BF91AF9139
:102B4000A29F800D911DA39F900DB29F900D112407
:102B5000089597FB072E16F4009407D077FD09D04F
:102B60000E940D1607FC05D03EF4909581959F4F6D
:102B70000895709561957F4F0895A1E21A2EAA1BC2
:102B8000BB1BFD010DC0AA1FBB1FEE1FFF1FA2171D
:102B9000B307E407F50720F0A21BB30BE40BF50B1A
:102BA000661F771F881F991F1A9469F760957095A3
:102BB000809590959B01AC01BD01CF010895052E34
:102BC00097FB1EF400940E94F61557FD07D00E9453
:102BD000BD1507FC03D04EF40C94F61550954095A6
:102BE000309521953F4F4F4F5F4F089590958095B9
:102BF000709561957F4F8F4F9F4F08950E948A1562
:102C0000B7FF0895821B930B0895B7FF0C944815E6
:102C10000E944815821B930B0895AA1BBB1B51E110
:102C200007C0AA1FBB1FA617B70710F0A61BB70B3C
:102C3000881F991F5A95A9F780959095BC01CD01E1
:102C40000895EE0FFF1F0590F491E02D0994911166
:102C50000C94451580538A5018F0865C0C943416F9
:102C6000089585FD0C944515806291110C944515CD
:102C700081568A51D8F708959111089581568A5145
:102C800008F4805285580895FB01DC018D91019074
:102C900080190110D9F3990B0895AEE0B0E0E3E597
:102CA000F6E10C9461158C01FA0186E08C831A839D
:102CB000098377FF02C060E070E8615071097E838C
:102CC0006D83A901BF01CE0101960E9479164D8145
:102CD0005E8157FD0AC02F813885421753070CF4D7
:102CE0009A01020F131FF80110822E96E4E00C9453
:102CF0007D15ABE0B0E0EFE7F6E10C9453157C01F5
:102D00003B018A01FC0117821682838181FFC8C1C1
:102D1000CE0101965C01F7019381F30193FD85914A
:102D200093FF81913F01882309F453C1853239F41F
:102D300093FD859193FF81913F01853229F4B7017D
:102D400090E00E946918E7CF912C212C312CFFE1F3
:102D5000F31538F08B3211F190F4803209F183329F
:102D600029F137FC3CC020ED280F2A3050F536FE03
:102D700020C08AE0989E200D1124922E06C08D322C
:102D800091F0803371F7689430F8F30193FD8591E9
:102D900093FF81913F018111DACF21C0689431F80E
:102DA000689432F8F2CF689433F8EFCF689434F82F
:102DB000ECCFEAE02E9E200D1124222E689435F8E7
:102DC000E4CF8E3229F436FC04C1689436F8DDCFA6
:102DD0008C3619F4689437F8D8CF8836B1F2982F2A
:102DE0009F7D95549330E0F08336A1F18337C1F194
:102DF000833509F063C02801F2E04F0E511CF80141
:102E0000C080D180692D70E036FC02C06FEF7FEF8B
:102E1000C6010E9453184C01689437F882010AC019
:102E20000C5F1F4FFFE3F98388248394912C650185
:102E3000E89437F833FE2DC0522C8114910471F5BB
:102E4000552009F468CFB70180E290E00E9469182C
:102E50005A94F6CFF801808189830E5F1F4FE4CF2B
:102E60002801F2E04F0E511CF801C080D180692D7D
:102E700070E036FC02C06FEF7FEFC6010E945E1863
:102E80004C018201D5CFB70180E290E00E94691821
:102E90002A942814190409F0B0F7CECFF60137FCB4
:102EA000859137FE81916F01B70190E00E9469180A
:102EB00051105A94F1E08F1A9108BFCF843619F05F
:102EC000893609F077C0F80137FE6BC060817181E7
:102ED000828193810C5F1F4FF32DFF763F2E97FF6A
:102EE00009C090958095709561957F4F8F4F9F4F4A
:102EF000689437F82AE030E0A5010E949918C82E9E
:102F0000CA188C2C432C36FE0CC0E89440F8C91427
:102F100040F434FE05C032FC03C0F32DFE7E4F2E7C
:102F2000892C44FE95C0FE01EC0DF11D808180339B
:102F300009F087C0242D297E422E842D8870582EBA
:102F400043FC95C040FE8FC09C2C821418F42C0CBE
:102F5000922C981844FE91C0B70180E390E00E9443
:102F6000691842FE09C088E790E041FE02C088E58A
:102F700090E0B7010E946918C91408F48AC0CA9485
:102F8000D12C9FEFC91AD90ACA0CDB1CF601829119
:102F90006F01B70190E00E946918AC14BD04B1F74D
:102FA0004FCF60817181072E000C880B990B0E5F4B
:102FB0001F4F92CFD32CE894D4F82AE030E0853725
:102FC00039F1232D297FD22E8F3601F148F488352F
:102FD000A9F0F701868197812B96E2E10C946F1599
:102FE000803749F08837A9F7D4FE02C06894D2F838
:102FF00020E130E00DC06894D4F8F6CF34FE03C071
:10300000822F8660D82E20E132E002C028E030E036
:10301000F801D7FE0FC060817181828193810C5FBE
:103020001F4FA5010E949918C82ECA183D2CE8947C
:1030300037F867CF6081718190E080E00E5F1F4FAD
:10304000F0CF42FC02C0839478CF8394839475CFF1
:10305000842D867809F471CFF6CFB70180E290E035
:103060000E94691883948214C0F3512C73CF522CA0
:103070005818821408F46ECFF8CF842D867809F49E
:103080007BCF8BE241FE80E247FC8DE2B70190E00E
:1030900071CFB70180E390E00E9469189A946CCFD9
:1030A0008FEF9FEF99CFFC010590615070400110A8
:1030B000D8F7809590958E0F9F1F0895FC01615061
:1030C000704001900110D8F7809590958E0F9F1F4A
:1030D00008950F931F93CF93DF93182F092FEB01C0
:1030E0008B8181FD09C01FEF0FEF812F902FDF91A2
:1030F000CF911F910F91089582FF14C02E813F81BF
:103100008C819D81281739073CF4E881F981CF0132
:1031100001969983888310838E819F8101969F8376
:103120008E83E3CFE885F985812F0995892BA1F35B
:10313000DACFFA01AA27283051F1203181F1E89441
:103140006F936E7F6E5F7F4F8F4F9F4FAF4FB1E09A
:103150003ED0B4E03CD0670F781F891F9A1FA11D95
:10316000680F791F8A1F911DA11D6A0F711D811D96
:10317000911DA11D20D009F468943F912AE0269F5B
:1031800011243019305D3193DEF6CF010895462FBA
:103190004770405D4193B3E00FD0C9F7F6CF462F9B
:1031A0004F70405D4A3318F0495D31FD4052419304
:1031B00002D0A9F7EACFB4E0A695979587957795C1
:1031C0006795BA95C9F700976105710508959B0148
:1031D000AC010A2E06945795479537952795BA95D1
:1031E000C9F7620F731F841F951FA01D0895F894DF
:0231F000FFCF0F
:1031F200A404A40401010100640078009D007F0082
:103202007C006800340120011703D302CE029B0226
:1032120098027C027702350232021A021002E2019F
:10322200DF01BF01BC01A0019D018901D804720424
:103232006F0448043F0419040D04990396038203A2
:10324200F205DE05D205AB05A80592058F058105BD
:103252007E056A051B01F900E400A0000C010200D2
:103262006E680084015601510137011401010068A2
:1032720000523A543A74503A70413A496968007BB4
:10328200035C034C0321031801090072773A613A87
:10329200413A680061053E052C05E3043C01050046
:1032A200703A483A76526800510639062906FE05F8
:1032B200500105004702DE0E4E02FE0D5702E30BDF
:1032C2005E02B10C63026E0CC101E11F21FFC2015B
:1032D20002094301831CC41CC501C601861CC91C0A
:1032E200CC1C8C1CCF1D18FD000000004505A50458
:1032F200D20492050305E104F504000000003F0634
:103302001206E805C505FA03D505C6056F6666000F
:10331200417661696C61626C6520636F6D6D616E8F
:1033220064733A20004D3A25640A0030782530341F
:10333200580A004F4B0A006D6F74696F6E00726914
:103342006368776176650073797374656D00656390
:08335200686F0068656C7000F3
:00000001FF
